:020000040800F2
:1000000000000220ED0A0008750A00087B0A0008BB
:10001000810A0008870A00088D0A00080000000015
:10002000000000000000000000000000930A00082B
:10003000A10A000800000000AF0A0008BD0A00087D
:100040003D0B00083D0B00083D0B00083D0B000870
:100050003D0B00083D0B00083D0B00083D0B000860
:100060003D0B00083D0B00083D0B00083D0B000850
:100070003D0B00083D0B00083D0B00083D0B000840
:100080003D0B00083D0B00083D0B00083D0B000830
:100090003D0B00083D0B00083D0B00083D0B000820
:1000A0003D0B00083D0B00083D0B00083D0B000810
:1000B0003D0B00083D0B00083D0B00083D0B000800
:1000C0003D0B00083D0B00083D0B00083D0B0008F0
:1000D0003D0B00083D0B00083D0B00083D0B0008E0
:1000E0003D0B00083D0B00083D0B00083D0B0008D0
:1000F0003D0B00083D0B00083D0B00083D0B0008C0
:100100003D0B00083D0B00083D0B00083D0B0008AF
:100110003D0B00083D0B00083D0B00083D0B00089F
:100120003D0B00083D0B00083D0B00083D0B00088F
:100130003D0B000800000000000000003D0B00081F
:100140003D0B00083D0B00083D0B00083D0B00086F
:100150003D0B00083D0B00083D0B00083D0B00085F
:100160003D0B00083D0B00083D0B00083D0B00084F
:100170003D0B00083D0B00083D0B0008000000008F
:10018000000000003D0B000800000000000000001F
:100190003D0B000800000000000000003D0B0008BF
:1001A0000000000000000000000000003D0B0008FF
:1001B0003D0B00083D0B00083D0B00083D0B0008FF
:0401C0003D0B0008EB
:1001C40010B5054C237833B9044B13B10448AFF38D
:1001D40000800123237010BD5000002000000000A7
:1001E4009838000808B5034B1BB103490348AFF323
:1001F400008008BD0000000054000020983800086A
:1002040053B94AB9002908BF00281CBF4FF0FF3179
:100214004FF0FF3000F074B9ADF1080C6DE904CE75
:1002240000F006F8DDF804E0DDE9022304B07047CD
:100234002DE9F047089D04468E46002B4DD18A4295
:10024400944669D9B2FA82F252B101FA02F3C2F1C8
:10025400200120FA01F10CFA02FC41EA030E944059
:100264004FEA1C48210CBEFBF8F61FFA8CF708FB7A
:1002740016E341EA034306FB07F199420AD91CEB52
:10028400030306F1FF3080F01F81994240F21C8184
:10029400023E63445B1AA4B2B3FBF8F008FB1033CC
:1002A40044EA034400FB07F7A7420AD91CEB040401
:1002B40000F1FF3380F00A81A74240F207816444D1
:1002C400023840EA0640E41B00261DB1D440002356
:1002D400C5E900433146BDE8F0878B4209D9002DBA
:1002E40000F0EF800026C5E9000130463146BDE844
:1002F400F087B3FA83F6002E4AD18B4202D38242AE
:1003040000F2F980841A61EB030301209E46002D5C
:10031400E0D0C5E9004EDDE702B9FFDEB2FA82F2B1
:10032400002A40F09280A1EB0C014FEA1C471FFA0F
:100334008CFE0126200CB1FBF7F307FB131140EAF6
:1003440001410EFB03F0884208D91CEB010103F1C3
:10035400FF3802D2884200F2CB804346091AA4B285
:10036400B1FBF7F007FB101144EA01440EFB00FE59
:10037400A64508D91CEB040400F1FF3102D2A645BE
:1003840000F2BB800846A4EB0E0440EA03409CE75D
:10039400C6F12007B34022FA07FC4CEA030C20FA0A
:1003A40007F401FA06F31C43F9404FEA1C4900FA2A
:1003B40006F3B1FBF9F8200C1FFA8CFE09FB1811A7
:1003C40040EA014108FB0EF0884202FA06F20BD91A
:1003D4001CEB010108F1FF3A80F08880884240F26A
:1003E4008580A8F102086144091AA4B2B1FBF9F0AE
:1003F40009FB101144EA014100FB0EFE8E4508D9A9
:100404001CEB010100F1FF346CD28E456AD902382D
:10041400614440EA0840A0FB0294A1EB0E01A14212
:10042400C846A64656D353D05DB1B3EB080261EB80
:100434000E0101FA07F722FA06F3F1401F43C5E95A
:10044400007100263146BDE8F087C2F12003D84090
:100454000CFA02FC21FA03F3914001434FEA1C47D2
:100464001FFA8CFEB3FBF7F007FB10360B0C43EAC4
:10047400064300FB0EF69E4204FA02F408D91CEB74
:10048400030300F1FF382FD29E422DD90238634472
:100494009B1B89B2B3FBF7F607FB163341EA034112
:1004A40006FB0EF38B4208D91CEB010106F1FF3861
:1004B40016D28B4214D9023E6144C91A46EA004658
:1004C40038E72E46284605E70646E3E61846F8E6EA
:1004D4004B45A9D2B9EB020864EB0C0E0138A3E733
:1004E4004646EAE7204694E74046D1E7D0467BE714
:1004F400023B614432E7304609E76444023842E78C
:10050400704700BF80B582B000AF8021002002F0A8
:1005140097FF4FF4385002F047FF034603F07F0380
:10052400FB71FB7919464FF4385002F089FF4FF400
:10053400385002F039FF034663F07F03FB71FB7907
:1005440019464FF4385002F07BFF062227494FF436
:10055400106003F023F8042225494FF4706003F07F
:100564001DF8042223494FF4807003F017F8042285
:1005740021494FF4A06003F011F8204B1B789B0035
:100584000133DB0003F53C530621184602F058FF03
:1005940007214FF4C85002F053FFD0214FF4D0503C
:1005A40002F04EFF08214FF4D85002F049FF022117
:1005B4004FF4C05002F044FF104B1B789B000133F2
:1005C400DB0003F530530821184602F039FF0B4BCA
:1005D4001B789B000133DB0003F500731F211846D1
:1005E40002F02EFF00BF0837BD4680BD000000208A
:1005F400080000200C00002010000020080100204A
:1006040080B584B002AF02F07FFB00F037F800F051
:1006140003F900F0D7F800F09FF8FFF773FF134BCE
:100624001878134B1A880123022102F003FC114BA2
:100634007B60114A3B461268114619800233120C42
:100644001A700A4B18783B1D394640F2D242009288
:10065400032202F073FD054B1B78184602F000FDDF
:100664004FF47A7002F0C2FBFAE700BF08010020E1
:1006740014000020C0A80002B038000880B594B06F
:1006840000AF07F11C0334220021184603F0FAF8E6
:1006940007F1080300221A605A609A60DA601A614E
:1006A40000237B602A4B1B6C294A43F0805313645C
:1006B400274B1B6C03F080537B607B6800233B60FB
:1006C400244B1B6823F44043224A43F480431360C1
:1006D400204B1B6803F440433B603B680223FB61EF
:1006E4000123BB621023FB6202237B630023BB63F1
:1006F4001023FB634FF4A8733B6404237B6402233D
:10070400BB640223FB6407F11C03184600F0DAFE05
:100714000346002B01D000F0EDF80F23BB60022349
:10072400FB6000233B614FF480537B610023BB617A
:1007340007F108030221184601F062F90346002B71
:1007440001D000F0D7F800BF5037BD4680BD00BFD0
:10075400003802400070004080B500AF174B184AC3
:100764001A60164B4FF482725A60144B00229A603E
:10077400124B0022DA60114B02221A610F4B012244
:100784005A610E4B4FF400729A610C4B2822DA61C5
:100794000A4B00221A62094B00225A62074B0022BC
:1007A4009A62064B0A22DA62044801F043FA0346CD
:1007B400002B01D000F09EF800BF80BD6C0000202B
:1007C4000030014080B500AF114B124A1A60104B43
:1007D4004FF4E1325A600E4B00229A600C4B002217
:1007E400DA600B4B00221A61094B0C225A61084B48
:1007F40000229A61064B0022DA61054801F0C2FF2B
:100804000346002B01D000F075F800BF80BD00BF87
:10081400C40000200044004080B58AB000AF07F156
:10082400140300221A605A609A60DA601A61002385
:100834003B612D4B1B6B2C4A43F0040313632A4B7F
:100844001B6B03F004033B613B690023FB60264BF5
:100854001B6B254A43F080031363234B1B6B03F08C
:100864008003FB60FB680023BB601F4B1B6B1E4AAD
:1008740043F0010313631C4B1B6B03F00103BB60C8
:10088400BB6800237B60184B1B6B174A43F00203C1
:100894001363154B1B6B03F002037B607B68002220
:1008A4004021124800F0C4FB4FF400537B614FF425
:1008B4000413BB610023FB6107F1140319460C48C0
:1008C40000F022FA40237B610123BB610023FB611A
:1008D40000233B6207F114031946044800F014FA9C
:1008E40000BF2837BD4680BD0038024000040240E6
:1008F4000008024080B400AF72B600BFFEE70000FB
:1009040080B582B000AF00237B60104B5B6C0F4A54
:1009140043F4804353640D4B5B6C03F480437B606E
:100924007B6800233B60094B1B6C084A43F08053EF
:100934001364064B1B6C03F080533B603B68072039
:1009440000F0AEF900BF0837BD4680BD0038024054
:1009540080B58AB000AF786007F1140300221A60F2
:100964005A609A60DA601A617B681B68194A93427C
:100974002BD100233B61184B5B6C174A43F4805323
:100984005364154B5B6C03F480533B613B69002358
:10099400FB60114B1B6B104A43F0010313630E4BB6
:1009A4001B6B03F00103FB60FB68E0237B61022304
:1009B400BB610023FB6103233B6205237B6207F1D8
:1009C40014031946054800F09FF900BF2837BD46B7
:1009D40080BD00BF003001400038024000000240EA
:1009E40080B58AB000AF786007F1140300221A6062
:1009F4005A609A60DA601A617B681B68194A9342EC
:100A04002BD100233B61184B1B6C174A43F4003372
:100A14001364154B1B6C03F400333B613B690023E7
:100A2400FB60114B1B6B104A43F0010313630E4B25
:100A34001B6B03F00103FB60FB680C237B61022347
:100A4400BB610023FB6103233B6207237B6207F145
:100A540014031946054800F057F900BF2837BD466E
:100A640080BD00BF00440040003802400000024046
:100A740080B400AFFEE780B400AFFEE780B400AFFF
:100A8400FEE780B400AFFEE780B400AFFEE780B4B9
:100A940000AF00BFBD465DF8047B704780B400AF73
:100AA40000BFBD465DF8047B704780B400AF00BF53
:100AB400BD465DF8047B704780B500AF02F076F95F
:100AC40000BF80BD80B400AF064BD3F88830054A20
:100AD40043F47003C2F8883000BFBD465DF8047B60
:100AE400704700BF00ED00E0DFF834D00D480E4938
:100AF4000E4A002302E0D458C4500433C4188C4274
:100B0400F9D30B4A0B4C002301E013600432A242D8
:100B1400FBD3FFF7D7FF02F091FEFFF771FD70479B
:100B2400000002200000002050000020DC380008F3
:100B3400500000202C010020FEE7000080B485B0A6
:100B440000AF78607B6803F00703FB600C4BDB6845
:100B5400BB60BA684FF6FF031340BB60FB681A0220
:100B6400BB68134343F0BF6343F40033BB60044AE0
:100B7400BB68D36000BF1437BD465DF8047B704783
:100B840000ED00E080B400AF044BDB681B0A03F007
:100B940007031846BD465DF8047B704700ED00E08E
:100BA40080B483B000AF03463960FB7197F9073016
:100BB400002B0ADB3B68DAB20C4997F907301201C3
:100BC400D2B20B4483F800230AE03B68DAB2084946
:100BD400FB7903F00F03043B1201D2B20B441A76E3
:100BE40000BF0C37BD465DF8047B704700E100E0B0
:100BF40000ED00E080B489B000AFF860B9607A60BD
:100C0400FB6803F00703FB61FB69C3F10703042BD3
:100C140028BF0423BB61FB690433062B02D9FB699B
:100C2400033B00E000237B614FF0FF32BB6902FA13
:100C340003F3DA43BB681A407B699A404FF0FF31F3
:100C44007B6901FA03F3D9437B680B4013431846CD
:100C54002437BD465DF8047B7047000080B582B040
:100C640000AF78607B68013BB3F1807F01D301233F
:100C74000FE00A4A7B68013B53600F214FF0FF30BD
:100C8400FFF78EFF054B00229A60044B07221A607F
:100C9400002318460837BD4680BD00BF10E000E0C1
:100CA40080B582B000AF78607868FFF747FF00BF77
:100CB4000837BD4680BD80B586B000AF0346B96035
:100CC4007A60FB7300237B61FFF75CFF78617A68CD
:100CD400B9687869FFF78EFF024697F90F3011461D
:100CE4001846FFF75DFF00BF1837BD4680BD80B5CD
:100CF40082B000AF78607868FFF7B0FF034618460B
:100D04000837BD4680BD000080B489B000AF78606C
:100D1400396000237B6100233B610023BB61002316
:100D2400FB6165E10122FB6902FA03F37B613B6825
:100D34001B687A6913403B613A697B699A4240F0C7
:100D440054813B685B6803F00303012B05D03B68C7
:100D54005B6803F00303022B30D17B689B68BB61A3
:100D6400FB695B00032202FA03F3DB43BA69134015
:100D7400BB613B68DA68FB695B0002FA03F3BA699A
:100D84001343BB617B68BA699A607B685B68BB612B
:100D94000122FB6902FA03F3DB43BA691340BB6126
:100DA4003B685B681B0903F00102FB6902FA03F369
:100DB400BA691343BB617B68BA695A603B685B6874
:100DC40003F00303032B17D07B68DB68BB61FB696B
:100DD4005B00032202FA03F3DB43BA691340BB61ED
:100DE4003B689A68FB695B0002FA03F3BA69134330
:100DF400BB617B68BA69DA603B685B6803F0030334
:100E0400022B23D1FB69DA087B68083253F82230BD
:100E1400BB61FB6903F007039B000F2202FA03F393
:100E2400DB43BA691340BB613B681A69FB6903F091
:100E340007039B0002FA03F3BA691343BB61FB691E
:100E4400DA087B680832B96943F822107B681B68AA
:100E5400BB61FB695B00032202FA03F3DB43BA695B
:100E64001340BB613B685B6803F00302FB695B00F2
:100E740002FA03F3BA691343BB617B68BA691A6067
:100E84003B685B6803F44033002B00F0AE80002322
:100E9400FB605D4B5B6C5C4A43F4804353645A4B88
:100EA4005B6C03F48043FB60FB68584AFB699B0856
:100EB400023352F82330BB61FB6903F003039B0048
:100EC4000F2202FA03F3DB43BA691340BB617B6868
:100ED4004F4A934225D07B684E4A93421FD07B6889
:100EE4004D4A934219D07B684C4A934213D07B6895
:100EF4004B4A93420DD07B684A4A934207D07B68A1
:100F0400494A934201D106230CE007230AE0052352
:100F140008E0042306E0032304E0022302E00123A3
:100F240000E00023FA6902F0030292009340BA69D8
:100F34001343BB613549FB699B080233BA6941F825
:100F440023203A4B9B68BB613B69DB43BA6913407E
:100F5400BB613B685B6803F48013002B03D0BA6960
:100F64003B691343BB61314ABB6993602F4BDB6818
:100F7400BB613B69DB43BA691340BB613B685B6897
:100F840003F40013002B03D0BA693B691343BB611C
:100F9400264ABB69D360254B5B68BB613B69DB4375
:100FA400BA691340BB613B685B6803F40033002BF0
:100FB40003D0BA693B691343BB611C4ABB695360E4
:100FC4001A4B1B68BB613B69DB43BA691340BB61C5
:100FD4003B685B6803F48033002B03D0BA693B6938
:100FE4001343BB61114ABB691360FB690133FB61A5
:100FF400FB690F2B7FF696AE00BF00BF2437BD46BA
:101004005DF8047B704700BF00380240003801409F
:10101400000002400004024000080240000C0240AC
:10102400001002400014024000180240003C01403D
:1010340080B483B000AF78600B467B8013467B702E
:101044007B78002B03D07A887B689A6103E07B88E5
:101054001A047B689A6100BF0C37BD465DF8047BB7
:10106400704700002DE9B04FAEB000AF0023C7F8C1
:10107400AC300023C7F8B4300023C7F8A8300023ED
:10108400C7F8A4300023C7F8B030CB4B9B6803F0FB
:101094000C030C2B00F2068201A252F823F000BFCD
:1010A400D9100008A9140008A9140008A9140008FC
:1010B400E1100008A9140008A9140008A9140008E4
:1010C400E9100008A9140008A9140008A9140008CC
:1010D400D9120008B94BC7F8B030E7E1B84BC7F8EC
:1010E400B030E3E1B44B5B6803F03F03C7F8AC30C6
:1010F400B14B5B6803F48003002B71D0AE4B5B688B
:101104009B090022C7F89830C7F89C20D7F898307C
:10111400C3F30803C7F890300023C7F89430D7E925
:10112400244522462B464FF000004FF000015901A0
:1011340041EAD261500102460B462146511A3964F4
:10114400294663EB01037B644FF000024FF0000378
:10115400D7E9108949468B01414643EA91634146E8
:101164008A014146511AB963494663EB0103FB63A3
:101174004FF000024FF00003D7E90E894946CB0037
:10118400414643EA51734146CA0010461946034694
:1011940022469B183B632B460A4642EB03037B63C0
:1011A4004FF000024FF00003D7E90C4529464B02EB
:1011B400214643EAD15321464A0210461946D7F83C
:1011C400AC300022C7F88830C7F88C20D7E9222336
:1011D400FFF716F802460B461346C7F8B43067E02B
:1011E400754B5B689B090022C7F88030C7F88420E0
:1011F400D7F88030C3F30803BB670023FB67D7E944
:101204001E4522462B464FF000004FF000015901C5
:1012140041EAD261500102460B462146511AB96295
:10122400294663EB0103FB624FF000024FF0000319
:10123400D7E90A8949468B01414643EA916341460D
:101244008A014146B2EB010A494663EB010B4FF0B8
:1012540000024FF000034FEACB0343EA5A734FEA0C
:10126400CA0292469B4623461AEB03033B622B4673
:101274004BEB03037B624FF000024FF00003D7E90E
:10128400084529468B02214643EA915321468A02A6
:1012940010461946D7F8AC3000223B677A67D7E985
:1012A4001C23FEF7ADFF02460B461346C7F8B430C5
:1012B400414B5B681B0C03F0030301335B00C7F86D
:1012C400A830D7F8B420D7F8A830B2FBF3F3C7F8A6
:1012D400B030EBE0384B5B6803F03F03C7F8AC3049
:1012E400354B5B6803F48003002B6BD0324B5B6897
:1012F4009B090022BB66FA66BB6EC3F308033B6618
:1013040000237B66D7E9184522462B464FF00000A0
:101314004FF00001590141EAD261500102460B46E7
:101324002146511AB961294663EB0103FB614FF071
:1013340000024FF00003D7E906AB59468B01514632
:1013440043EA916351468A015146B2EB010859467A
:1013540063EB01094FF000024FF000034FEAC903A9
:1013640043EA58734FEAC80290469946234618EB5D
:1013740003033B612B4649EB03037B614FF00002FF
:101384004FF00003D7E9044529464B02214643EABE
:10139400D15321464A0210461946D7F8AC300022F0
:1013A400BB65FA65D7E91623FEF72AFF02460B460A
:1013B4001346C7F8B43065E0003802400024F40056
:1013C40000127A003D4B5B689B09002218461146C7
:1013D400C0F308033B6500237B65D7E914894246C3
:1013E4004B464FF000004FF00001590141EAD26131
:1013F400500102460B464146511AB960494663EB17
:101404000103FB604FF000024FF00003D7E902AB89
:1014140059468B01514643EA916351468A0151462C
:10142400541A594663EB01054FF000024FF00003D4
:10143400EB0043EA5473E20014461D464346E318A6
:101444003B604B4645EB03037B604FF000024FF0DB
:101454000003D7E9004529468B02214643EA91530C
:1014640021468A0210461946D7F8AC300022BB64E4
:10147400FA64D7E91223FEF7C3FE02460B4613466D
:10148400C7F8B4300D4B5B681B0F03F00703C7F8B4
:10149400A430D7F8B420D7F8A430B2FBF3F3C7F8DC
:1014A400B03003E0064BC7F8B03000BFD7F8B03017
:1014B4001846B837BD46BDE8B08F00BF00380240BB
:1014C4000024F40080B586B000AF78607B68002B00
:1014D40001D101238DE27B681B6803F00103002B1B
:1014E40000F08380944B9B6803F00C03042B19D009
:1014F400914B9B6803F00C03082B06D18E4B5B6861
:1015040003F48003B3F5800F0CD08B4B9B6803F07E
:101514000C030C2B12D1884B5B6803F48003B3F5E6
:10152400800F0BD1844B1B6803F40033002B5BD07A
:101534007B685B68002B57D101235AE27B685B68A8
:10154400B3F5803F06D17C4B1B687B4A43F4803360
:1015540013601DE07B685B68B3F5A02F0CD1764B5C
:101564001B68754A43F480231360734B1B68724AEB
:1015740043F4803313600BE06F4B1B686E4A23F413
:10158400803313606C4B1B686B4A23F48023136015
:101594007B685B68002B13D001F01CFC386108E009
:1015A40001F018FC02463B69D31A642B01D90323CA
:1015B4001FE2614B1B6803F40033002BF0D014E0EE
:1015C40001F008FC386108E001F004FC02463B69C4
:1015D400D31A642B01D903230BE2574B1B6803F482
:1015E4000033002BF0D100E000BF7B681B6803F0E0
:1015F4000203002B6FD0504B9B6803F00C03002BAD
:1016040017D04D4B9B6803F00C03082B05D14A4BB4
:101614005B6803F48003002B0BD0474B9B6803F0FB
:101624000C030C2B1CD1444B5B6803F48003002B8C
:1016340016D1414B1B6803F00203002B05D07B68D5
:10164400DB68012B01D00123D3E13B4B1B6823F062
:10165400F8027B681B69DB00374913430B603AE0EF
:101664007B68DB68002B20D0344B01221A6001F028
:10167400B1FB386108E001F0ADFB02463B69D31AC7
:10168400022B01D90323B4E12B4B1B6803F00203A3
:10169400002BF0D0284B1B6823F0F8027B681B69F1
:1016A400DB00254913430B6015E0244B00221A602C
:1016B40001F090FB386108E001F08CFB02463B69C5
:1016C400D31A022B01D9032393E11B4B1B6803F0AC
:1016D4000203002BF0D17B681B6803F00803002B86
:1016E40036D07B685B69002B16D0154B01221A603B
:1016F40001F070FB386108E001F06CFB02463B69C5
:10170400D31A022B01D9032373E10B4B5B6F03F054
:101714000203002BF0D01BE0094B00221A6001F0F9
:1017240059FB38610EE001F055FB02463B69D31AC0
:10173400022B07D903235CE1003802400000474232
:10174400800E47428A4B5B6F03F00203002BEAD101
:101754007B681B6803F00403002B00F097800023D0
:10176400FB75834B1B6C03F08053002B0FD10023BC
:10177400BB607F4B1B6C7E4A43F0805313647C4BED
:101784001B6C03F08053BB60BB680123FB75794B72
:101794001B6803F48073002B18D1764B1B68754AC1
:1017A40043F48073136001F015FB386108E001F025
:1017B40011FB02463B69D31A022B01D9032318E11A
:1017C4006C4B1B6803F48073002BF0D07B689B6820
:1017D400012B06D1664B1B6F654A43F00103136767
:1017E4001CE07B689B68052B0CD1614B1B6F604A26
:1017F40043F0040313675E4B1B6F5D4A43F0010320
:1018040013670BE05A4B1B6F594A23F0010313670C
:10181400574B1B6F564A23F0040313677B689B687E
:10182400002B15D001F0D6FA38610AE001F0D2FAA3
:1018340002463B69D31A41F28832934201D9032309
:10184400D7E04B4B1B6F03F00203002BEED014E0E8
:1018540001F0C0FA38610AE001F0BCFA02463B69C3
:10186400D31A41F28832934201D90323C1E0404B99
:101874001B6F03F00203002BEED1FB7D012B05D17E
:101884003B4B1B6C3A4A23F0805313647B689B697F
:10189400002B00F0AD80364B9B6803F00C03082B43
:1018A40060D07B689B69022B45D1334B00221A60C0
:1018B40001F090FA386108E001F08CFA02463B69C5
:1018C400D31A022B01D9032393E0294B1B6803F09D
:1018D4000073002BF0D17B68DA697B681B6A1A43BA
:1018E4007B685B6A9B011A437B689B6A5B08013BCC
:1018F4001B041A437B68DB6A1B061A437B681B6B59
:101904001B071B4913434B601B4B01221A6001F058
:1019140061FA386108E001F05DFA02463B69D31AC6
:10192400022B01D9032364E0114B1B6803F00073FD
:10193400002BF0D05CE0104B00221A6001F04AFA50
:10194400386108E001F046FA02463B69D31A022BDB
:1019540001D903234DE0064B1B6803F00073002BF1
:10196400F0D145E07B689B69012B07D1012340E05E
:101974000038024000700040600047421F4B5B6823
:10198400FB607B689B69012B30D0FB6803F4800209
:101994007B68DB699A4229D1FB6803F03F027B68CC
:1019A4001B6A9A4222D1FA6847F6C07313407A68D8
:1019B400526A9201934219D1FB6803F440327B6866
:1019C4009B6A5B08013B1B049A420FD1FB6803F03E
:1019D40070627B68DB6A1B069A4207D1FB6803F0DE
:1019E400E0427B681B6B1B079A4201D0012300E095
:1019F400002318461837BD4680BD00BF003802409A
:101A040080B584B000AF786039607B68002B01D169
:101A14000123CCE0684B1B6803F00F033A689A4239
:101A24000CD9654B3A68D2B21A70634B1B6803F049
:101A34000F033A689A4201D00123B8E07B681B681F
:101A440003F00203002B20D07B681B6803F004031F
:101A5400002B05D0594B9B68584A43F4E0539360DC
:101A64007B681B6803F00803002B05D0534B9B686D
:101A7400524A43F460439360504B9B6823F0F00256
:101A84007B689B684D4913438B607B681B6803F03C
:101A94000103002B44D07B685B68012B07D1474BC3
:101AA4001B6803F40033002B19D101237FE07B680A
:101AB4005B68022B03D07B685B68032B07D13F4B29
:101AC4001B6803F00073002B09D101236FE03B4B2B
:101AD4001B6803F00203002B01D1012367E0374B9D
:101AE4009B6823F003027B685B68344913438B6073
:101AF40001F070F9F8600AE001F06CF90246FB6845
:101B0400D31A41F28832934201D903234FE02B4B7D
:101B14009B6803F00C027B685B689B009A42EBD1E4
:101B2400254B1B6803F00F033A689A420CD2224BF0
:101B34003A68D2B21A70204B1B6803F00F033A685C
:101B44009A4201D0012332E07B681B6803F004034E
:101B5400002B08D0194B9B6823F4E0527B68DB68A8
:101B6400164913438B607B681B6803F00803002B42
:101B740009D0124B9B6823F460427B681B69DB002D
:101B84000E4913438B60FFF76DFA02460B4B9B68BB
:101B94001B0903F00F030A49CB5C22FA03F3094A39
:101BA4001360094B1B68184601F0D0F8002318464F
:101BB4001037BD4680BD00BF003C024000380240E3
:101BC400B4380008180000201C00002080B400AFC6
:101BD400034B1B681846BD465DF8047B704700BF85
:101BE4001800002080B500AFFFF7F0FF0246054B58
:101BF4009B689B0A03F007030349CB5C22FA03F3B7
:101C0400184680BD00380240C438000880B500AFD3
:101C1400FFF7DCFF0246054B9B685B0B03F00703F1
:101C24000349CB5C22FA03F3184680BD0038024016
:101C3400C438000880B582B000AF78607B68002BA0
:101C440001D101237BE07B685B6A002B08D17B68B0
:101C54005B68B3F5827F09D07B680022DA6105E016
:101C64007B6800221A617B6800225A617B6800222B
:101C74009A627B6893F85130DBB2002B06D17B6803
:101C8400002283F850207868FEF762FE7B68022207
:101C940083F851207B681B681A687B681B6822F0F4
:101CA40040021A607B685B6803F482727B689B68FD
:101CB40003F404431A437B68DB6803F400631A43A8
:101CC4007B681B6903F002031A437B685B6903F0BA
:101CD40001031A437B689B6903F400731A437B680E
:101CE400DB6903F038031A437B681B6A03F0800343
:101CF40042EA03017B689B6A03F400527B681B6819
:101D04000A431A607B689B691B0C03F004017B681F
:101D14005B6A03F010027B681B680A435A607B68A5
:101D24001B68DA697B681B6822F40062DA617B68ED
:101D340000225A657B68012283F85120002318464B
:101D44000837BD4680BD80B588B000AFF860B96083
:101D54003B601346FB800023FB77FB6893F850300D
:101D6400012B01D1022326E1FB68012283F85020D4
:101D740001F030F8B861FB88FB82FB6893F85130BE
:101D8400DBB2012B02D00223FB770BE1BB68002BF3
:101D940002D0FB88002B02D10123FB7702E1FB6810
:101DA400032283F85120FB6800225A65FB68BA6855
:101DB4001A63FB68FA889A86FB68FA88DA86FB68F5
:101DC40000229A63FB6800229A87FB680022DA8764
:101DD400FB6800225A64FB6800221A64FB689B6853
:101DE400B3F5004F0FD1FB681B681A68FB681B68CA
:101DF40022F040021A60FB681B681A68FB681B68C3
:101E040042F480421A60FB681B681B6803F04003BD
:101E1400402B07D0FB681B681A68FB681B6842F0FC
:101E240040021A60FB68DB68B3F5006F4BD1FB68B6
:101E34005B68002B02D0FB8A012B3ED1FB681B6B35
:101E44001A88FB681B68DA60FB681B6B9A1CFB68CA
:101E54001A63FB68DB8E9BB2013B9AB2FB68DA869D
:101E64002BE0FB681B689B6803F00203022B12D172
:101E7400FB681B6B1A88FB681B68DA60FB681B6BCA
:101E84009A1CFB681A63FB68DB8E9BB2013B9AB217
:101E9400FB68DA8611E000F09DFF0246BB69D31AA5
:101EA4003A689A4203D83B68B3F1FF3F02D13B68DA
:101EB400002B02D10323FB7774E0FB68DB8E9BB21B
:101EC400002BCED14CE0FB685B68002B02D0FB8A70
:101ED400012B40D1FB681A6BFB681B680C3312782A
:101EE4001A70FB681B6B5A1CFB681A63FB68DB8E59
:101EF4009BB2013B9AB2FB68DA862CE0FB681B6854
:101F04009B6803F00203022B13D1FB681A6BFB6876
:101F14001B680C3312781A70FB681B6B5A1CFB6825
:101F24001A63FB68DB8E9BB2013B9AB2FB68DA86CC
:101F340011E000F04FFF0246BB69D31A3A689A4297
:101F440003D83B68B3F1FF3F02D13B68002B02D1B9
:101F54000323FB7726E0FB68DB8E9BB2002BCDD1FD
:101F6400BA693968F86800F0CBFB0346002B02D04D
:101F7400FB6820225A65FB689B68002B0AD100236A
:101F84003B61FB681B68DB683B61FB681B689B6803
:101F94003B613B69FB685B6D002B02D00123FB773F
:101FA40000E000BFFB68012283F85120FB68002297
:101FB40083F85020FB7F18462037BD4680BD80B58E
:101FC40088B002AFF860B9603B601346FB80002321
:101FD400FB75FB685B68B3F5827F12D1FB689B6875
:101FE400002B0ED1FB68042283F85120FA883B6849
:101FF40000931346BA68B968F86800F0F1F803462C
:10200400EAE0FB6893F85030012B01D10223E3E0AE
:10201400FB68012283F8502000F0DCFE3861FB6885
:1020240093F85130DBB2012B02D00223FB75CAE0D6
:10203400BB68002B02D0FB88002B02D10123FB7567
:10204400C1E0FB68042283F85120FB6800225A6532
:10205400FB68BA689A63FB68FA889A87FB68FA880F
:10206400DA87FB6800221A63FB6800229A86FB6801
:102074000022DA86FB6800221A64FB6800225A6494
:10208400FB689B68B3F5004F0FD1FB681B681A68A7
:10209400FB681B6822F040021A60FB681B681A6820
:1020A400FB681B6822F480421A60FB681B681B688B
:1020B40003F04003402B07D0FB681B681A68FB68D9
:1020C4001B6842F040021A60FB68DB68002B62D197
:1020D4002EE0FB681B689B6803F00103012B15D1FC
:1020E400FB681B6803F10C02FB689B6B1278D2B28D
:1020F4001A70FB689B6B5A1CFB689A63FB68DB8F46
:102104009BB2013B9AB2FB68DA8711E000F062FEF1
:1021140002463B69D31A3A689A4203D83B68B3F142
:10212400FF3F02D13B68002B02D10323FB754AE039
:10213400FB68DB8F9BB2002BCBD131E0FB681B68C3
:102144009B6803F00103012B13D1FB681B68DA6859
:10215400FB689B6B92B21A80FB689B6B9A1CFB68B2
:102164009A63FB68DB8F9BB2013B9AB2FB68DA8708
:1021740011E000F02FFE02463B69D31A3A689A42F6
:1021840003D83B68B3F1FF3F02D13B68002B02D177
:102194000323FB7517E0FB68DB8F9BB2002BCDD1CB
:1021A4003A693968F86800F045FA0346002B02D012
:1021B400FB6820225A65FB685B6D002B02D001236B
:1021C400FB7500E000BFFB68012283F85120FB6827
:1021D400002283F85020FB7D18461837BD4680BD89
:1021E40080B58CB000AFF860B9607A607B80012361
:1021F400FB62002387F82B30FB6893F85030012BE7
:1022040001D102238AE1FB68012283F8502000F007
:10221400E1FD7862FB6893F8513087F82330FB685E
:102224005B68FB617B887B8397F82330012B0FD09D
:10223400FB69B3F5827F07D1FB689B68002B03D150
:1022440097F82330042B03D0022387F82B305BE16B
:10225400BB68002B05D07B68002B02D07B88002B49
:1022640003D1012387F82B304EE1FB6893F85130FA
:10227400DBB2042B03D0FB68052283F85120FB68F2
:1022840000225A65FB687A689A63FB687A88DA8761
:10229400FB687A889A87FB68BA681A63FB687A884D
:1022A400DA86FB687A889A86FB6800221A64FB68DF
:1022B40000225A64FB681B681B6803F04003402B30
:1022C40007D0FB681B681A68FB681B6842F0400271
:1022D4001A60FB68DB68B3F5006F78D1FB685B6854
:1022E400002B02D07B8B012B66D1FB681B6B1A88F9
:1022F400FB681B68DA60FB681B6B9A1CFB681A633B
:10230400FB68DB8E9BB2013B9AB2FB68DA8653E032
:10231400FB681B689B6803F00203022B1BD1FB685C
:10232400DB8E9BB2002B16D0FB6A012B13D1FB680A
:102334001B6B1A88FB681B68DA60FB681B6B9A1CB2
:10234400FB681A63FB68DB8E9BB2013B9AB2FB68A5
:10235400DA860023FB62FB681B689B6803F00103B9
:10236400012B19D1FB68DB8F9BB2002B14D0FB68C7
:102374001B68DA68FB689B6B92B21A80FB689B6BE4
:102384009A1CFB689A63FB68DB8F9BB2013B9AB291
:10239400FB68DA870123FB6200F01CFD02467B6ABE
:1023A400D31ABA6B9A4207D8BB6BB3F1FF3F03D081
:1023B400032387F82B30A7E0FB68DB8E9BB2002B4E
:1023C400A6D1FB68DB8F9BB2002BA1D17CE0FB681C
:1023D4005B68002B02D07B8B012B6BD1FB681A6BE3
:1023E400FB681B680C3312781A70FB681B6B5A1C51
:1023F400FB681A63FB68DB8E9BB2013B9AB2FB68F5
:10240400DA8657E0FB681B689B6803F00203022B23
:102414001CD1FB68DB8E9BB2002B17D0FB6A012B0F
:1024240014D1FB681A6BFB681B680C3312781A70A2
:10243400FB681B6B5A1CFB681A63FB68DB8E9BB240
:10244400013B9AB2FB68DA860023FB62FB681B68D7
:102454009B6803F00103012B19D1FB68DB8F9BB24E
:10246400002B14D0FB681B68DA68FB689B6BD2B244
:102474001A70FB689B6B5A1CFB689A63FB68DB8FC2
:102484009BB2013B9AB2FB68DA870123FB6200F03E
:10249400A1FC02467B6AD31ABA6B9A4203D8BB6B7F
:1024A400B3F1FF3F02D1BB6B002B03D1032387F8A9
:1024B4002B3029E0FB68DB8E9BB2002BA2D1FB689A
:1024C400DB8F9BB2002B9DD17A6AB96BF86800F060
:1024D40017F90346002B06D0012387F82B30FB683D
:1024E40020225A6510E0FB689B68002B0BD1002367
:1024F4007B61FB681B68DB687B61FB681B689B680E
:102504007B617B6900E000BFFB68012283F85120F6
:10251400FB68002283F8502097F82B301846303798
:10252400BD4680BD80B588B000AFF860B9603B603F
:102534001346FB7100F04EFC0246BB6A9B1A3A68D4
:102544001344FB6100F046FCB861394B1B685B0126
:102554001B0DFA6902FB03F37B6154E03B68B3F1A2
:10256400FF3F50D000F036FC0246BB69D31AFA692B
:102574009A4202D9FB69002B3DD1FB681B685A685B
:10258400FB681B6822F0E0025A60FB685B68B3F5E5
:10259400827F11D1FB689B68B3F5004F04D0FB68C0
:1025A4009B68B3F5806F07D1FB681B681A68FB68EA
:1025B4001B6822F040021A60FB689B6AB3F5005F57
:1025C4000FD1FB681B681A68FB681B6822F4005271
:1025D4001A60FB681B681A68FB681B6842F40052A7
:1025E4001A60FB68012283F85120FB68002283F8FB
:1025F4005020032317E07B69002B01D10023FB61EA
:102604007B69013B7B61FB681B689A68BB6813406C
:10261400BA689A420CBF01230023DBB21A46FB7945
:102624009A429BD1002318462037BD4680BD00BF87
:102634001800002080B586B002AFF860B9607A60F7
:10264400FB685B68B3F5827F11D1FB689B68B3F5C7
:10265400004F04D0FB689B68B3F5806F07D1FB681B
:102664001B681A68FB681B6822F040021A60FB684A
:102674005B68B3F5827F2AD1FB689B68B3F5806FF2
:1026840012D07B680093BB6800228021F868FFF7B2
:1026940049FF0346002B2DD0FB685B6D43F02002FD
:1026A400FB685A65032326E07B680093BB6800221D
:1026B4000121F868FFF736FF0346002B1AD0FB68A8
:1026C4005B6D43F02002FB685A65032313E07B68CB
:1026D4000093BB6800220121F868FFF723FF03463B
:1026E400002B07D0FB685B6D43F02002FB685A6542
:1026F400032300E0002318461037BD4680BD0000C8
:1027040080B588B002AFF860B9607A601B4B1B6873
:102714001B4AA2FB03235B0D4FF47A7202FB03F303
:102724007B61FB685B68B3F5827F12D17B680093A1
:10273400BB6800228021F868FFF7F4FE0346002BF3
:1027440016D0FB685B6D43F02002FB685A650323D7
:102754000FE07B69002B0AD07B69013B7B61FB683E
:102764001B689B6803F08003802BF2D000E000BF5D
:10277400002318461837BD4680BD00BF180000204E
:10278400819F5E1680B582B000AF78607B68002BB5
:1027940001D101233FE07B6893F83D30DBB2002B8D
:1027A40006D17B68002283F83C207868FEF718F98C
:1027B4007B68242283F83D207B681B68DA687B6889
:1027C4001B6822F40052DA60786800F029F87B680C
:1027D4001B681A697B681B6822F490421A617B6843
:1027E4001B685A697B681B6822F02A025A617B685D
:1027F4001B68DA687B681B6842F40052DA607B6805
:1028040000221A647B68202283F83D207B68202202
:1028140083F83E20002318460837BD4680BD0000DB
:102824002DE9B04FC0B000AFC7F8F400D7F8F430CA
:102834001B681B6923F44050D7F8F430D968D7F8E3
:10284400F4301A6840EA01031361D7F8F4309A6847
:10285400D7F8F4301B691A43D7F8F4305B691A438C
:10286400D7F8F430DB691343C7F8F830D7F8F430FD
:102874001B68DB6823F4164121F00C01D7F8F4300F
:102884001A68D7F8F8300B43D360D7F8F4301B68D4
:102894005B6923F44070D7F8F4309969D7F8F430C1
:1028A4001A6840EA01035361D7F8F4301A688F4B71
:1028B4009A4205D0D7F8F4301A688D4B9A4204D165
:1028C400FFF7A4F9C7F8FC0003E0FFF78BF9C7F89A
:1028D400FC00D7F8F430DB69B3F5004F40F00C810D
:1028E400D7F8FC300022C7F8E830C7F8EC20D7E965
:1028F4003A4522462B469118B9655B41FB65D7E9F9
:102904001623214612EB0108294643EB01094FF037
:1029140000024FF000034FEAC90343EA58734FEA39
:10292400C80290469946234618EB0303C7F8E030E3
:102934002B4649EB0303C7F8E430D7F8F4305B685F
:102944000022C7F8D830C7F8DC20D7E936120B4686
:10295400DB183B65134642EB03037B65D7E914237D
:10296400D7E93801FDF74CFC02460B46614BA3FB4B
:1029740002235B091C01D7F8FC300022C7F8D030D1
:10298400C7F8D420D7E9348942464B469118B96434
:102994005B41FB64D7E91223414612EB010A494625
:1029A40043EB010B4FF000024FF000034FEACB035F
:1029B40043EA5A734FEACA0292469B4643461AEBCD
:1029C4000303C7F8C8304B464BEB0303C7F8CC30BE
:1029D400D7F8F4305B680022C7F8C030C7F8C420C9
:1029E400D7E930120B46DB183B64134642EB030372
:1029F4007B64D7E91023D7E93201FDF701FC0246D5
:102A04000B4611463B4BA3FB01235B09642202FBEB
:102A140003F3CB1ADB0003F13202364BA3FB022390
:102A24005B095B0003F4F8731C44D7F8FC30002204
:102A3400C7F8B830C7F8BC20D7E92E8942464B46C0
:102A44009118B9635B41FB63D7E90E2341465118E2
:102A5400396349464B417B634FF000024FF000035A
:102A6400D7E90CAB5946CB00514643EA5173514662
:102A7400CA0010461946034642469B18C7F8B030B0
:102A84004B460A4642EB0303C7F8B430D7F8F43098
:102A94005B680022C7F8A830C7F8AC20D7E92A122F
:102AA4000B46DB18BB62134642EB0303FB62D7E918
:102AB4000A23D7E92C01FDF7A3FB02460B460D4B75
:102AC400A3FB02135B09642101FB03F3D31ADB00AC
:102AD4003233084AA2FB03235B0903F00702D7F849
:102AE400F4301B6822449A6005E100BF00100140E5
:102AF400001401401F85EB51D7F8FC300022C7F8C1
:102B0400A030C7F8A420D7E9288942464B4691183B
:102B140039625B417B62D7E9082341465418494630
:102B240043EB01054FF000024FF00003EB0043EAD2
:102B34005473E20014461D464346E318C7F8983020
:102B44004B4645EB0303C7F89C30D7F8F4305B6879
:102B54000022C7F89030C7F894204FF000024FF0DD
:102B64000003D7E9244529468B00214643EA9173A3
:102B740021468A00D7E92601FDF742FB02460B46AF
:102B8400604BA3FB02235B091C01D7F8FC30002235
:102B9400C7F88830C7F88C20D7E9228942464B46CB
:102BA4009118B9615B41FB61D7E90623414651188D
:102BB400396149464B417B614FF000024FF00003FD
:102BC400D7E904AB5946CB00514643EA5173514609
:102BD400CA0010461946034642469B18C7F880307F
:102BE4004B460A4642EB0303C7F88430D7F8F43067
:102BF4005B680022BB67FA674FF000024FF00003E6
:102C0400D7E91E8949468B00414643EA9173414600
:102C14008A00D7E92001FDF7F3FA02460B46394B47
:102C2400A3FB02135B09642101FB03F3D31A1B0109
:102C34003233344AA2FB03235B0903F0F0031C4440
:102C4400D7F8FC3000223B677A67D7E91C894246F3
:102C54004B469118B9605B41FB60D7E902234146BA
:102C64005118396049464B417B604FF000024FF0E8
:102C74000003D7E900AB5946CB00514643EA5173F0
:102C84005146CA0010461946034642469B18BB6685
:102C94004B460A4642EB0303FB66D7F8F4305B6805
:102CA40000223B667A664FF000024FF00003D7E93A
:102CB400188949468B00414643EA917341468A008C
:102CC400D7E91A01FDF79CFA02460B460D4BA3FB0C
:102CD40002135B09642101FB03F3D31A1B01323392
:102CE400084AA2FB03235B0903F00F02D7F8F43070
:102CF4001B6822449A6000BF07F58077BD46BDE893
:102D0400B08F00BF1F85EB5180B500AF0E4B1B6821
:102D14000D4A43F4007313600B4B1B680A4A43F4D7
:102D240080631360084B1B68074A43F48073136085
:102D34000320FDF7B5FF002000F008F8FDF7E0FDE3
:102D44000023184680BD00BF003C024080B582B01D
:102D540000AF7860124B1A68124B1B7819464FF477
:102D64007A73B3FBF1F3B2FBF3F31846FDF7BFFF3D
:102D74000346002B01D001230EE07B680F2B0AD8F9
:102D8400002279684FF0FF30FDF795FF064A7B6813
:102D94001360002300E0012318460837BD4680BDB8
:102DA40018000020200000201C00002080B400AF88
:102DB400064B1B781A46064B1B681344044A1360DF
:102DC40000BFBD465DF8047B704700BF20000020B3
:102DD4000C01002080B400AF034B1B681846BD46AD
:102DE4005DF8047B704700BF0C01002080B584B0FF
:102DF40000AF7860FFF7EEFFB8607B68FB60FB68AC
:102E0400B3F1FF3F05D00A4B1B781A46FB68134405
:102E1400FB6000BFFFF7DEFF0246BB68D31AFA6807
:102E24009A42F7D800BF00BF1037BD4680BD00BF2F
:102E34002000002090B585B000AF04460846114636
:102E44001A462346FB710346BB710B46BB801346EF
:102E5400FB70FB79082B02D94FF0FF33F2E0BB790A
:102E6400012B05D0002B11DD023B022B0ED811E003
:102E740007F10C03042219464FF4706000F02EFB96
:102E8400FB68002B05D16FF00203DBE06FF0040355
:102E9400D8E000BFFB7803F00403002B02D06FF0EE
:102EA4000503CFE0FB78002B25D0BB79012B02D0A2
:102EB400022B08D024E0FB7803F02103002B1CD163
:102EC4006FF00503BEE0FB7803F02003002B06D06F
:102ED40097F90330002B02DB6FF00503B2E0FB78B7
:102EE40003F01003002B0AD097F90330002B06DB04
:102EF4006FF00503A6E000BF02E000BF00E000BFE2
:102F0400FB79184600F0ACF8FB799B000133DB0039
:102F1400184697F9033023F00F035AB297F9063095
:102F240013435BB2DBB2194600F08AFABB88002B6C
:102F340010D1464B1B885A1C91B2444A1180BB8065
:102F4400424B1B884FF6F072934203D13F4B4FF430
:102F540040421A80FB799B000133DB0003F5806358
:102F64001A46BB881B0A9BB2DBB21946104600F016
:102F740067FAFB799B000133DB0003F5A0631A4673
:102F8400BB88DBB21946104600F05AFAFB799B0065
:102F94000133DB0003F580730121184600F050FA79
:102FA40000BFFB799B000133DB0003F580731846F7
:102FB40000F0FAF90346002BF3D1FB79012202FA5F
:102FC40003F31BB2DB431AB2214B1B881BB2134021
:102FD4001BB29AB21E4B1A80FB7803F00102FB79F4
:102FE40002FA03F31AB21A4B1B881BB213431BB227
:102FF4009AB2174B1A80FB79012202FA03F31BB22F
:10300400DB431AB2134B1B881BB213401BB29AB298
:10301400104B1A80FB79104A002122F81310FB7917
:103024000E4A0021D15400BFFB799B000133DB0021
:1030340003F54073184600F0B7F90346002BF3D0AC
:1030440097F9073018461437BD4690BD220000207A
:10305400100100201201002014010020240100208E
:1030640080B582B000AF0346FB71FB79082B02D90F
:103074004FF0FF3355E0FB799B000133DB0003F590
:1030840080731021184600F0DBF900BFFB799B0028
:103094000133DB0003F58073184600F085F903461D
:1030A400002BF3D1FB799B000133DB0003F50073A4
:1030B4001F21184600F0C4F9FB79012202FA03F338
:1030C4001BB2DB431AB2194B1B881BB213401BB251
:1030D4009AB2164B1A80FB79012202FA03F31BB24F
:1030E400DB431AB2124B1B881BB213401BB29AB2B9
:1030F4000F4B1A80FB790F4A002122F81310FB7939
:103104000D4A0021D15400BFFB799B000133DB0041
:1031140003F54073184600F047F90346002BF3D13A
:10312400012318460837BD4680BD00BF10010020AA
:1031340012010020140100202401002080B586B073
:1031440000AFB9607B600346FB731346BB81002369
:10315400FB750023BB82FB7B082B02D94FF0FF33A6
:103164001BE1FB7B9B000133DB00184600F01CF9DC
:10317400034603F00F03023B022B02D96FF0040352
:103184000BE100BFBB89002B02D16FF00D0304E1FA
:103194007B681B783B613B691B027A6801321278B9
:1031A40013443B613B691B027A6802321278134470
:1031B4003B613B691B027A680332127813443B611A
:1031C4003B69002B0ED1FB7B9B000133DB001846CF
:1031D40000F0EAF8034603F00403042B02D06FF076
:1031E4000B03DAE03B8C002B0ED1FB7B9B000133FD
:1031F400DB00184600F0D8F8034603F00403042B60
:1032040002D06FF00A03C8E0FB7B9B000133DB00B4
:1032140003F54073184600F0C7F80346FB75FB7DC1
:10322400422B08D0FB7D222B05D0FB7D322B02D014
:103234006FF00603B1E0FB7B9B000133DB0003F579
:10324400406304227968184600F0A8F9FB7B9B00D0
:103254000133DB0003F580531A463B8C1B0A9BB2F7
:10326400DBB21946104600F0EBF8FB7B9B00013300
:10327400DB0003F588531A463B8CDBB21946104633
:1032840000F0DEF8FB7B9B000133DB0003F5F85311
:10329400184600F089F803469BB29B02BB82BA89A8
:1032A400BB8A9A4201D9BB8ABB81FB7B184600F0DA
:1032B400D5F90346BB82FB7B9B000133DB0003F59E
:1032C4004073184600F070F80346002B02D16FF0EB
:1032D400030362E0334B1B881A46FB7B42FA03F379
:1032E40003F00103002B05D0BA89BB8A9A4201D9A5
:1032F400002352E0BA89BB8A9A4200D9D5E700BFBD
:10330400BA89FB7BB968184600F0F3F9FB7B9B0094
:103314000133DB0003F580732021184600F090F898
:1033240000BFFB7B9B000133DB0003F58073184671
:1033340000F03AF80346002BF3D1FB7B9B000133EA
:10334400DB0003F50073184600F02EF8034603F083
:103354001F03FB75FB7D03F01003002B0CD0FB7BDC
:103364009B000133DB0003F500731021184600F0C5
:1033740067F800BFBB8910E0FB7D03F00803002B56
:10338400DBD0FB7B9B000133DB0003F500730821DA
:10339400184600F055F86FF00C0318461837BD4670
:1033A40080BD00BF1001002080B584B000AF7860FC
:1033B400224BDB689847214B5B6998471F4B5B6A3C
:1033C400002B03D01D4B9B6A002B14D11B4B1B6A93
:1033D4007A68120CD2B210469847184B1B6A7A6866
:1033E400120AD2B210469847144B1B6A7A68D2B2BA
:1033F4001046984711E07B681B0CDBB23B737B687B
:103404001B0ADBB27B737B68DBB2BB730B4B9B6A1F
:1034140007F10C02032110469847084BDB699847D3
:103424000346FB73054B9B699847044B1B699847FC
:10343400FB7B18461037BD4680BD00BF240000202A
:1034440080B584B000AF78600B46FB70224BDB681C
:103454009847214B5B6998477B6843F004037B6082
:103464001D4B9B6A002B19D11B4B1B6A7A68120CEB
:10347400D2B210469847184B1B6A7A68120AD2B225
:1034840010469847144B1B6A7A68D2B21046984784
:10349400114B1B6AFA781046984713E07B681B0CA3
:1034A400DBB23B737B681B0ADBB27B737B68DBB2EA
:1034B400BB73FB78FB73084B9B6A07F10C02042176
:1034C40010469847044B9B699847034B1B699847E0
:1034D40000BF1037BD4680BD2400002090B587B0E2
:1034E40000AFF860B9601346FB802B4BDB6898474C
:1034F400294B5B699847284B5B6A002B03D0264B0A
:103504009B6A002B26D1244B1B6AFA68120CD2B298
:1035140010469847204B1B6AFA68120AD2B210462A
:1035240098471D4B1B6AFA68D2B21046984700238D
:10353400FB820AE0184BDB69FA8AB9688C18984751
:1035440003462370FB8A0133FB82FA8AFB889A4282
:10355400F0D317E0FB681B0CDBB23B74FB681B0A5F
:10356400DBB27B74FB68DBB2BB740B4B9B6A07F169
:103574001002032110469847074B5B6AFA881146EC
:10358400B8689847044B9B699847034B1B69984755
:1035940000BF1C37BD4690BD2400002080B586B016
:1035A40000AFF860B9601346FB802B4BDB6898478B
:1035B400294B5B699847FB6843F00403FB60264B87
:1035C4009B6A002B26D1244B1B6AFA68120CD2B2D8
:1035D40010469847204B1B6AFA68120AD2B210466A
:1035E40098471D4B1B6AFA68D2B2104698470023CD
:1035F400FB820AE0184B1B6AFA8AB9680A441278FB
:1036040010469847FB8A0133FB82FA8AFB889A4268
:10361400F0D317E0FB681B0CDBB23B74FB681B0A9E
:10362400DBB27B74FB68DBB2BB740B4B9B6A07F1A8
:103634001002032110469847074B9B6AFA881146EB
:10364400B8689847044B9B699847034B1B69984794
:1036540000BF1837BD4680BD2400002090B585B05A
:1036640000AF0346FB710023FB810023BB81FB7980
:103674009B000133DB0003F500531846FFF794FE6B
:103684000346BB81BB891B029CB2FB799B000133BF
:10369400DB0003F504531846FFF786FE03469BB28E
:1036A4002344BB81BB89002B1AD0FB799B000133D7
:1036B400DB0003F500531846FFF776FE0346FB8153
:1036C400FB891B029CB2FB799B000133DB0003F5F1
:1036D40004531846FFF768FE03469BB22344FB815C
:1036E400FA89BB899A42C2D1FB8918461437BD4670
:1036F40090BD90B585B000AF03463960FB711346A9
:10370400BB800023FB810023BB60BB88002B48D017
:10371400FB799B000133DB0003F510531846FFF7D8
:1037240043FE03469BB21B029CB2FB799B00013310
:10373400DB0003F514531846FFF736FE03469BB22D
:103744002344FB81FB891B02FA7992000232D200E6
:103754001344BB60BB881A463968B868FFF71EFF7C
:10376400FA89BB881344FB81FB799B000133DB009E
:1037740003F510531A46FB891B0A9BB2DBB21946A8
:103784001046FFF75DFEFB799B000133DB0003F578
:1037940014531A46FB89DBB219461046FFF750FE54
:1037A40000E000BF1437BD4690BD80B400AF00BF39
:1037B400BD465DF8047B704780B400AF00BFBD46D2
:1037C4005DF8047B7047000080B500AF0022402103
:1037D4000248FDF72DFC00BF80BD00BF000402407D
:1037E40080B500AF012240210248FDF721FC00BF53
:1037F40080BD00BF0004024080B582B000AFF91D57
:10380400642301220348FEF7DAFBFB7918460837E4
:10381400BD4680BD6C00002080B582B000AF034679
:10382400FB71F91D642301220348FEF78CFA00BFE3
:103834000837BD4680BD00BF6C00002070B50D4D3B
:103844000D4C641BA4100026A64209D10B4D0C4C50
:1038540000F020F8641BA4100026A64205D170BD18
:1038640055F8043B98470136EEE755F8043B984772
:103874000136F2E7D4380008D4380008D4380008F8
:10388400D838000802440346934200D1704703F835
:10389400011BF9E7F8B500BFF8BC08BC9E467047A9
:0C38A400F8B500BFF8BC08BC9E46704799
:1038B0004142430000000000000000000102030438
:0C38C000060708090000000001020304D4
:0838CC0068C9FF7F0100000044
:0438D400E9010008FE
:0438D800C50100081E
:1038DC00AABBCCDDEEFF0000C0A80064C0A80001AC
:1038EC00FFFFFF0050C300000024F4001000000094
:1038FC00010000C0010257353530300000000000D7
:10390C00AF370008BD370008CD370008E537000891
:10391C00FD3700081D380008000000000000000002
:0400000508000AEDF8
:00000001FF
